{
  "contractName": "WeaponTracking",
  "abi": [
    {
      "inputs": [
        {
          "internalType": "uint256",
          "name": "_serialNumber",
          "type": "uint256"
        },
        {
          "internalType": "address",
          "name": "_manufacturer",
          "type": "address"
        }
      ],
      "name": "createWeapon",
      "outputs": [],
      "stateMutability": "nonpayable",
      "type": "function"
    },
    {
      "inputs": [
        {
          "internalType": "uint256",
          "name": "_serialNumber",
          "type": "uint256"
        },
        {
          "internalType": "address",
          "name": "_distributor",
          "type": "address"
        }
      ],
      "name": "addDistributor",
      "outputs": [],
      "stateMutability": "nonpayable",
      "type": "function"
    },
    {
      "inputs": [
        {
          "internalType": "uint256",
          "name": "_serialNumber",
          "type": "uint256"
        },
        {
          "internalType": "address",
          "name": "_dealer",
          "type": "address"
        }
      ],
      "name": "addDealer",
      "outputs": [],
      "stateMutability": "nonpayable",
      "type": "function"
    },
    {
      "inputs": [
        {
          "internalType": "uint256",
          "name": "_serialNumber",
          "type": "uint256"
        }
      ],
      "name": "verifyAuthenticity",
      "outputs": [],
      "stateMutability": "nonpayable",
      "type": "function"
    },
    {
      "inputs": [
        {
          "internalType": "uint256",
          "name": "_serialNumber",
          "type": "uint256"
        }
      ],
      "name": "getWeapon",
      "outputs": [
        {
          "internalType": "uint256",
          "name": "serialNumber",
          "type": "uint256"
        },
        {
          "internalType": "address",
          "name": "manufacturer",
          "type": "address"
        },
        {
          "internalType": "address",
          "name": "distributor",
          "type": "address"
        },
        {
          "internalType": "address",
          "name": "dealer",
          "type": "address"
        },
        {
          "internalType": "bool",
          "name": "isAuthentic",
          "type": "bool"
        }
      ],
      "stateMutability": "view",
      "type": "function",
      "constant": true
    }
  ],
  "bytecode": "0x608060405234801561001057600080fd5b5061093f806100206000396000f3fe608060405234801561001057600080fd5b50600436106100575760003560e01c80636f3d38801461005c57806389126cc6146100785780638ab0eab7146100945780639e41b73f146100b0578063c77deab4146100e4575b600080fd5b6100766004803603810190610071919061065a565b610100565b005b610092600480360381019061008d919061065a565b610286565b005b6100ae60048036038101906100a99190610631565b610381565b005b6100ca60048036038101906100c59190610631565b610455565b6040516100db95949392919061082f565b60405180910390f35b6100fe60048036038101906100f9919061065a565b61050c565b005b6040518060a001604052808381526020018273ffffffffffffffffffffffffffffffffffffffff168152602001600073ffffffffffffffffffffffffffffffffffffffff168152602001600073ffffffffffffffffffffffffffffffffffffffff168152602001600015158152506000808481526020019081526020016000206000820151816000015560208201518160010160006101000a81548173ffffffffffffffffffffffffffffffffffffffff021916908373ffffffffffffffffffffffffffffffffffffffff16021790555060408201518160020160006101000a81548173ffffffffffffffffffffffffffffffffffffffff021916908373ffffffffffffffffffffffffffffffffffffffff16021790555060608201518160030160006101000a81548173ffffffffffffffffffffffffffffffffffffffff021916908373ffffffffffffffffffffffffffffffffffffffff16021790555060808201518160030160146101000a81548160ff0219169083151502179055509050505050565b60008083815260200190815260200160002060010160009054906101000a900473ffffffffffffffffffffffffffffffffffffffff1673ffffffffffffffffffffffffffffffffffffffff163373ffffffffffffffffffffffffffffffffffffffff1614610329576040517f08c379a0000000000000000000000000000000000000000000000000000000008152600401610320906107ef565b60405180910390fd5b8060008084815260200190815260200160002060020160006101000a81548173ffffffffffffffffffffffffffffffffffffffff021916908373ffffffffffffffffffffffffffffffffffffffff1602179055505050565b60008082815260200190815260200160002060030160009054906101000a900473ffffffffffffffffffffffffffffffffffffffff1673ffffffffffffffffffffffffffffffffffffffff163373ffffffffffffffffffffffffffffffffffffffff1614610424576040517f08c379a000000000000000000000000000000000000000000000000000000000815260040161041b9061080f565b60405180910390fd5b600160008083815260200190815260200160002060030160146101000a81548160ff02191690831515021790555050565b600080600080600080600080888152602001908152602001600020905080600001548160010160009054906101000a900473ffffffffffffffffffffffffffffffffffffffff168260020160009054906101000a900473ffffffffffffffffffffffffffffffffffffffff168360030160009054906101000a900473ffffffffffffffffffffffffffffffffffffffff168460030160149054906101000a900460ff16955095509550955095505091939590929450565b60008083815260200190815260200160002060020160009054906101000a900473ffffffffffffffffffffffffffffffffffffffff1673ffffffffffffffffffffffffffffffffffffffff163373ffffffffffffffffffffffffffffffffffffffff16146105af576040517f08c379a00000000000000000000000000000000000000000000000000000000081526004016105a6906107cf565b60405180910390fd5b8060008084815260200190815260200160002060030160006101000a81548173ffffffffffffffffffffffffffffffffffffffff021916908373ffffffffffffffffffffffffffffffffffffffff1602179055505050565b600081359050610616816108db565b92915050565b60008135905061062b816108f2565b92915050565b60006020828403121561064357600080fd5b60006106518482850161061c565b91505092915050565b6000806040838503121561066d57600080fd5b600061067b8582860161061c565b925050602061068c85828601610607565b9150509250929050565b61069f81610893565b82525050565b6106ae816108a5565b82525050565b60006106c1601f83610882565b91507f4f6e6c79206469737472696275746f722063616e20616464206465616c6572006000830152602082019050919050565b6000610701602583610882565b91507f4f6e6c79206d616e7566616374757265722063616e206164642064697374726960008301527f6275746f720000000000000000000000000000000000000000000000000000006020830152604082019050919050565b6000610767602383610882565b91507f4f6e6c79206465616c65722063616e207665726966792061757468656e74696360008301527f69747900000000000000000000000000000000000000000000000000000000006020830152604082019050919050565b6107c9816108d1565b82525050565b600060208201905081810360008301526107e8816106b4565b9050919050565b60006020820190508181036000830152610808816106f4565b9050919050565b600060208201905081810360008301526108288161075a565b9050919050565b600060a08201905061084460008301886107c0565b6108516020830187610696565b61085e6040830186610696565b61086b6060830185610696565b61087860808301846106a5565b9695505050505050565b600082825260208201905092915050565b600061089e826108b1565b9050919050565b60008115159050919050565b600073ffffffffffffffffffffffffffffffffffffffff82169050919050565b6000819050919050565b6108e481610893565b81146108ef57600080fd5b50565b6108fb816108d1565b811461090657600080fd5b5056fea26469706673582212205c156f49774cd68da68d785f8073972856450ba97898fb412ccb3a704fa2a1cb64736f6c63430008000033",
  "immutableReferences": {},
  "source": "pragma solidity ^0.8.0;\r\n\r\n//SPDX-License-Identifier: MIT\r\n\r\ncontract WeaponTracking {\r\n\r\n    struct Weapon {\r\n        uint256 serialNumber;\r\n        address manufacturer;\r\n        address distributor;\r\n        address dealer;\r\n        bool isAuthentic;\r\n    }\r\n\r\n    mapping(uint256 => Weapon) weapons;\r\n\r\n    function createWeapon(uint256 _serialNumber, address _manufacturer) public {\r\n        weapons[_serialNumber] = Weapon(_serialNumber, _manufacturer, address(0), address(0), false);\r\n    }\r\n\r\n    function addDistributor(uint256 _serialNumber, address _distributor) public {\r\n        require(msg.sender == weapons[_serialNumber].manufacturer, \"Only manufacturer can add distributor\");\r\n        weapons[_serialNumber].distributor = _distributor;\r\n    }\r\n\r\n    function addDealer(uint256 _serialNumber, address _dealer) public {\r\n        require(msg.sender == weapons[_serialNumber].distributor, \"Only distributor can add dealer\");\r\n        weapons[_serialNumber].dealer = _dealer;\r\n    }\r\n\r\n    function verifyAuthenticity(uint256 _serialNumber) public {\r\n        require(msg.sender == weapons[_serialNumber].dealer, \"Only dealer can verify authenticity\");\r\n        weapons[_serialNumber].isAuthentic = true;\r\n    }\r\n\r\n    function getWeapon(uint256 _serialNumber) public view returns (\r\n        uint256 serialNumber,\r\n        address manufacturer,\r\n        address distributor,\r\n        address dealer,\r\n        bool isAuthentic\r\n    ) {\r\n        Weapon storage weapon = weapons[_serialNumber];\r\n        return (\r\n            weapon.serialNumber,\r\n            weapon.manufacturer,\r\n            weapon.distributor,\r\n            weapon.dealer,\r\n            weapon.isAuthentic\r\n        );\r\n    }\r\n}\r\n",
  "sourcePath": "C:\\Users\\Bharath\\OneDrive\\Desktop\\BEL\\WTracker\\Contract\\contracts\\WeaponTracking.sol",
  "compiler": {
    "name": "solc",
    "version": "0.8.0+commit.c7dfd78e.Emscripten.clang"
  },
  "schemaVersion": "3.4.13",
  "updatedAt": "2023-04-03T16:18:39.777Z",
  "networkType": "ethereum",
  "devdoc": {
    "kind": "dev",
    "methods": {},
    "version": 1
  },
  "userdoc": {
    "kind": "user",
    "methods": {},
    "version": 1
  }
}